S021000041565220496E746572666163652044726976657273204E54492E737265635F
S11300000C94F2000C94D4020C940F010C940F0184
S11300100C940F010C940F010C940F010C940F011C
S11300200C940F010C940F010C9413060C94EC0522
S11300300C940F010C940F010C940F010C940F01FC
S11300400C942F010C940F010C940F010C940F01CC
S11300500C940F0163016301630163016301630194
S113006063016301E701E70171017101710171012C
S11300707101710171017101E701E70181018101E0
S1130080810181018101810181018101E701E70190
S113009091019101910191019101910191019101CC
S11300A0AE01AE01AE01AE01AE01AE01AE01AE01D4
S11300B0E701E701BB01BB01BB01BB01BB01BB0104
S11300C0BB01BB01E701E701CA01CA01CA01CA01B8
S11300D0CA01CA01CA01CA01E701E701D901D9016C
S11300E0D901D901D901D901D901D901F601F60102
S11300F0F601F601F601F601F601F601D202D2028A
S113010004020402040204020402040204020402BB
S1130110D202D202140214021402140214021402AF
S113012014021402D202D20224022402240224025F
S11301302402240224022402420242024202420213
S11301404202420242024202D202D2024F024F0251
S11301504F024F024F024F024F024F02D202D2020D
S11301605E025E025E025E025E025E025E025E028B
S1130170D202D2026D026D026D026D026D026D0239
S11301806D026D028A028A028A028A028A028A0245
S11301908A028A02D202D2029A029A029A029A022B
S11301A09A029A029A029A02D202D202AD02AD02D5
S11301B0AD02AD02AD02AD02AD02AD02D202D20279
S11301C0C002C002C002C002C002C002C002C0021B
S11301D033043D04470451045B0465046F0479044B
S11301E083048D0411241FBECFE5D8E0DEBFCDBF4C
S11301F010E0A0E6B0E0ECE1FDE002C005900D9255
S1130200A438B107D9F720E0A4E8B0E001C01D92FA
S1130210AC38B207E1F70E94A4040C948C060C9449
S1130220000087E886B980E487B9089597B18F7094
S1130230982B97B986B1806486B9349BFECF85E349
S11302408A95F1F7000024B185B190E0982F8827B2
S1130250A0E0B0E0820F911DA11DB11D08951F9271
S11302600F920FB60F9211242F933F934F935F93E6
S11302706F937F938F939F93AF93BF93EF93FF936A
S1130280E0918400F09185000995FF91EF91BF9171
S1130290AF919F918F917F916F915F914F913F911A
S11302A02F910F900FBE0F901F901895611149C0A8
S11302B0482F50E04632510508F089C0FA01E65D46
S11302C0FF4F0C946C064BB321E030E0B90102C03F
S11302D0660F771F8A95E2F7CB01809584238BBB49
S11302E076C048B390E00A9721E030E0B90102C03B
S11302F0660F771F8A95E2F7CB018095842388BB2C
S113030066C045B390E0449721E030E0B90102C0F3
S1130310660F771F8A95E2F7CB018095842385BB0E
S113032056C042B390E04E9721E030E0B90102C0DC
S1130330660F771F8A95E2F7CB018095842382BBF1
S113034046C0613009F043C0482F50E046325105A1
S1130350F0F5FA01E05BFF4F0C946C064BB321E01F
S113036030E0B90102C0660F771F8A95E2F7CB012E
S1130370842B8BBB2CC048B390E00A9721E030E07B
S1130380B90102C0660F771F8A95E2F7CB01842B6F
S113039088BB1DC045B390E0449721E030E0B9012B
S11303A002C0660F771F8A95E2F7CB01842B85BBC9
S11303B00EC042B390E04E9721E030E0B90102C094
S11303C0660F771F8A95E2F7CB01842B82BB80E00E
S11303D00895611149C0482F50E04632510508F094
S11303E0E1C0FA01EA58FF4F0C946C065AB321E0BD
S11303F030E0B90102C0660F771F8A95E2F7CB019E
S1130400809585238ABBCEC027B3482F50E04A503D
S1130410510981E090E002C0880F991F4A95E2F7E4
S11304208095822387BBBEC024B3482F50E044513B
S1130430510981E090E002C0880F991F4A95E2F7C4
S11304408095822384BBAEC021B3482F50E04E5127
S1130450510981E090E002C0880F991F4A95E2F7A4
S11304608095822381BB9EC0613009F045C0482F2E
S113047050E04632510508F095C0FA01E456FF4FAA
S11304800C946C064AB321E030E0B90102C0660F57
S1130490771F8A95E2F7CB01842B8ABB83C027B3ED
S11304A0482F50E04A50510981E090E002C0880F83
S11304B0991F4A95E2F7822B87BB74C024B3482F57
S11304C050E04451510981E090E002C0880F991F27
S11304D04A95E2F7822B84BB65C021B3482F50E0D4
S11304E04E51510981E090E002C0880F991F4A954E
S11304F0E2F7822B81BB56C0633009F053C0482F0A
S113050050E04632510508F04DC0FA01EE53FF4F5A
S11305100C946C069AB321E030E0082E02C0220F3E
S1130520331F0A94E2F7209529232ABB61E00E9435
S1130530560138C097B3482F50E04A50510921E082
S113054030E002C0220F331F4A95E2F72095292399
S113055027BB61E00E94560125C094B3482F50E0A8
S11305604451510921E030E002C0220F331F4A9563
S1130570E2F72095292324BB61E00E94560112C0B2
S113058091B3482F50E04E51510921E030E002C0B0
S1130590220F331F4A95E2F72095292321BB61E0FE
S11305A00E94560180E008951F920F920FB60F9299
S11305B011242F933F934F935F936F937F938F9364
S11305C09F93AF93BF93EF93FF93E0918600F091D5
S11305D087000995FF91EF91BF91AF919F918F9102
S11305E07F916F915F914F913F912F910F900FBE2B
S11305F00F901F901895CF93C82F84FB662760F93E
S11306008AE00E945601C5FB662760F98BE00E94D0
S11306105601C6FB662760F98CE00E9456016C2FD8
S1130620661F6627661F8EE00E94560161E082E025
S11306300E9456018FE39FE10197F1F700C000008B
S113064060E082E00E9456016C2F61708AE00E9493
S11306505601C1FB662760F98BE00E945601C2FB7C
S1130660662760F98CE00E945601C3FB662760F997
S11306708EE00E94560161E082E00E9456018FE301
S11306809FE10197F1F700C0000060E082E00E9462
S11306905601CF910895CF93C82F60E083E00E9464
S11306A0560160E082E00E9456018C2F0E94FB02FA
S11306B0CF910895CF93C82F61E083E00E94560143
S11306C060E082E00E9456018C2F0E94FB02CF91D1
S11306D008950F931F93CF93DF93EC010BC061E058
S11306E083E00E9456018E010F5F1F4F88810E9494
S11306F05A03E80188818111F2CFDF91CF911F91D4
S11307000F91089580680E944B030895823031F060
S1130710833031F0813031F080E005C084E103C0E2
S113072084E501C080E4860F0E94820308950F933C
S11307301F93CF93883098F48B0190E00896880F2C
S1130740880F880F0E944B03C0E007C0F801EC0F2C
S1130750F11D80810E945A03CF5FC830B8F3CF9156
S11307601F910F91089581E00E944B0380E80E943D
S11307704B03089561E083E00E94E90161E082E0B7
S11307800E94E90161E08AE00E94E90161E08BE0F6
S11307900E94E90161E08CE00E94E90161E08EE0E1
S11307A00E94E9012FEF83EF91E0215080409040B7
S11307B0E1F700C0000083E30E944B038FE39CE950
S11307C00197F1F700C0000082E30E944B038FE31E
S11307D09CE90197F1F700C0000088E20E944B03F6
S11307E08CE00E944B030E94B3030895CF92DF92E2
S11307F0EF92FF921F93CF93DF936B017C01D42F71
S1130800122F611571058105910571F480E30E9431
S11308105A0392C0CA01B9012AE030E040E050E036
S11308200E944A06CF5F03C09B01AC01C0E02115C2
S113083031054105510571F7C15078C0C701B601B2
S11308402AE030E040E050E00E944A0669017A0163
S1130850862F90E08A30910508F068C0FC01E851C9
S1130860FF4F0C946C066C2F610F8D2F0E94860332
S113087080E30E945A03C15059C06C2F610F8D2F21
S11308800E94860381E30E945A03C1504FC06C2F1B
S1130890610F8D2F0E94860382E30E945A03C15088
S11308A045C06C2F610F8D2F0E94860383E30E9445
S11308B05A03C1503BC06C2F610F8D2F0E948603D9
S11308C084E30E945A03C15031C06C2F610F8D2FF5
S11308D00E94860385E30E945A03C15027C06C2FEF
S11308E0610F8D2F0E94860386E30E945A03C15034
S11308F01DC06C2F610F8D2F0E94860387E30E9419
S11309005A03C15013C06C2F610F8D2F0E948603B0
S113091088E30E945A03C15009C06C2F610F8D2FC8
S11309200E94860389E30E945A03C150C114D10472
S1130930E104F10409F082CFDF91CF911F91FF9080
S1130940EF90DF90CF900895CF93DF93CDB7DEB7CC
S113095068970FB6F894DEBF0FBECDBF0E94110199
S11309600E94BA030E949C0561E08DE00E94E901A7
S113097088E0E0E6F0E0DE01119601900D928A95A0
S1130980E1F788E0E8E6F0E0DE01199601900D92C7
S11309908A95E1F788E0E0E7F0E0DE015196019006
S11309A00D928A95E1F7BE016F5E7F4F80E00E9451
S11309B09703BE01675F7F4F81E00E949703BE01EA
S11309C06F5F7F4F82E00E94970380E00E941601D0
S11309D0BC0180E090E01F921F921F9224E62F93A7
S11309E0A12CB12C650114E8E12E13E0F12E00E0F6
S11309F010E02EE130E040E050E00E9459056B0128
S1130A007C0104E610E0061B170B60E080E00E9406
S1130A10860388E790E00E946903B80180E090E0D3
S1130A202BE040E00E94F6030F900F900F900F9080
S1130A300A30110528F06DE080E00E94860304C0AE
S1130A406CE080E00E94860385E20E945A038AE4F7
S1130A5090E08C199D09C19740F460E081E00E9408
S1130A60860381E00E945A0315C00B34110540F03F
S1130A7060E081E00E94860380E00E945A030AC07D
S1130A800A31110538F460E081E00E94860382E0B7
S1130A900E945A03802F0E94C0052FEF8DEE92E032
S1130AA0215080409040E1F700C000000E94B30351
S1130AB08CCF4F925F926F927F92AF92BF92CF9200
S1130AC0DF92EF92FF920F931F93CF93DF93CDB7F3
S1130AD0DEB729013A019B01AC0124193509460905
S1130AE0570989899A89AB89BC89BC01CD016A19E6
S1130AF07B098C099D090E943A0698018701041913
S1130B00150926093709A90198012A0D3B1D4C1D19
S1130B105D1D0E944A06CA01B901DF91CF911F9160
S1130B200F91FF90EF90DF90CF90BF90AF907F90A8
S1130B306F905F904F90089583B7806483BF83B7AD
S1130B40886083BF83B7816083BF83B78D7F83BF92
S1130B5083B7846083BF83B78F7E83BF83B780628C
S1130B6083BF89B78E7F89BF89B78D7F89BF88B7D7
S1130B70816088BF88B7826088BF12BE1CBE08959A
S1130B80AF92BF92CF92DF92EF92FF920F931F9397
S1130B90682F70E080E090E01F921F921F922FEF69
S1130BA02F93A12CB12C650114E6E12EF12C00E069
S1130BB010E020E030E0A9010E9459056CBF0F90BD
S1130BC00F900F900F901F910F91FF90EF90DF9077
S1130BD0CF90BF90AF9008951F920F920FB60F92CF
S1130BE011242F933F934F935F936F937F938F932E
S1130BF09F93AF93BF93EF93FF93E0918A00F0919B
S1130C008B000995FF91EF91BF91AF919F918F91C7
S1130C107F916F915F914F913F912F910F900FBEF4
S1130C200F901F9018951F920F920FB60F921124D8
S1130C302F933F934F935F936F937F938F939F93E0
S1130C40AF93BF93EF93FF93E0918800F0918900F5
S1130C500995FF91EF91BF91AF919F918F917F91F2
S1130C606F915F914F913F912F910F900FBE0F9015
S1130C701F901895DB018F939F930E947206BF917A
S1130C80AF91A29F800D911DA39F900DB29F900DD7
S1130C9011240895A1E21A2EAA1BBB1BFD010DC04D
S1130CA0AA1FBB1FEE1FFF1FA217B307E407F50718
S1130CB020F0A21BB30BE40BF50B661F771F881FF4
S1130CC0991F1A9469F760957095809590959B018A
S1130CD0AC01BD01CF010895EE0FFF1F0590F49103
S1130CE0E02D09940E947D06A59F900DB49F900D60
S1130CF0A49F800D911D11240895A29FB001B39F5C
S1130D00C001A39F700D811D1124911DB29F700D10
S10F0D10811D1124911D0895F894FFCF5B
S1130D1C0E0E04040E150A110E0E04041F040A11FF
S1130D2C0E0E04150E040A114272696768746E651E
S1070D3C73733D008C
S9030000FC
